:100000006F00C072000000004A0100004C010000B7
:1000100000000000000000000000000000000000E0
:1000200000000000000000000000000000000000D0
:100030002A070000000000002A070000000000005E
:100040002A0700002A0700002A0700002A070000EC
:100050002A0400002A0700002A0700002A070000DF
:100060002A0700002A0700002A0700002A070000CC
:100070002A0700002A0700002A0700002A070000BC
:10008000FA0400002A0700002A0700002A070000DF
:100090002A0700002A0700002A07000000000000CD
:1000A000511126C022C206C4828282441244A24058
:1000B000310182802A86014593F6150091C232955E
:1000C00085810606F5F9828000000000634E050276
:1000D00063C305042E86AA857D5515C285466378BF
:1000E000B6006356C00006068606E36CB6FE014500
:1000F00063E4C500918D558D85820582F5FA828075
:100100008682C93F2E8582823305A04063D70500D1
:10011000B305B040C1B7B305B0408682653F330533
:10012000A0408282868263C70500634905005D376F
:100130002E858282B305B040E35B05FE3305A04007
:10014000513F3305B0408282000001A0B707EFBEE7
:1001500037E700E0938707083CC701A0EFF25FF4A0
:1001600011651301C1FD85451305050202C402C6D0
:1001700002C802CA02CC02CE02D0EF00F00A9307F6
:1001800000027C84371401408D473EC62C00E147B5
:10019000130504403EC8EF00406C930700047C84C4
:1001A0002C009147130504403EC8EF00006BF16737
:1001B00037440140938707203ECA4C08B7070C001C
:1001C000130504803ECE02CC23100102EF00B007DD
:1001D000130504808545EF00D01305469305505262
:1001E00013050480EF005014930700127C800A85E9
:1001F00085473EC223110100EF00A07113014102A7
:100200006DB5EFF2FFE91301C1FD8545130510033C
:1002100002C402C602C802CA02CC02CE02D002C088
:1002200002C2EF0070003715014041448D44B147D0
:100230002C00130505407C8426C622C8392D894729
:100240002C00371501407C8426C622C83925930727
:1002500000037C842C009147371501403EC826C618
:10026000ED2B91450945512595450945BD2D48087A
:1002700022CE22CA054422D002CCB5239307000225
:1002800048083ECA8D23D1470A857C80408122C21E
:1002900049251301410211BD830605001307D0044F
:1002A0006395E60AEFF2DFDF2A84EF10A00205472C
:1002B0006373A7048307140089461386F7FC63EC75
:1002C000C602938707FD6389D7028D46638DD702E7
:1002D0006393E70201468945371501401125014620
:1002E00037140140914513050440DD2B0146A1451B
:1002F00013050440F52355BB0546894537150140D4
:10030000C5230546F1BF3715000013050533EF007F
:10031000B0740146894537150140D9231545EF00D2
:10032000B00C3714014001469145130504404D2B94
:100330000546A1451305044065231545EF00D00A85
:10034000054689453715014075B78280EFF25FD5C4
:1003500005456D2BBD26EF00F005716513050520E1
:10036000EF00300CB707002083A507013715000008
:100370001305852EEF00506E9521AA8537150000D4
:100380001305852FEF00506DAD3DC1453715014078
:1003900099232A8493050002371501402D2B06046A
:1003A000498C1374F40F238B81804D3B9387E1803C
:1003B0009C2385461387E18093F7F70F6391D70459
:1003C00037040020130484031420639CD7003715DE
:1003D000000013058530EF00506A230004001387E6
:1003E000E1802300070083C5418103C6518183A6B4
:1003F00001813715000013054531EF00F0651384C6
:1004000071811C2093F7F70FD5D3B7070020938590
:1004100081811385C703EF00F06AB70700201385B9
:10042000C7039D3D2300040051B705477111C14525
:10043000371501402387E18022C071292A84930562
:100440000002371501404129238A8180A38AA180B7
:1004500093866181942293171400C98F93F6F60F47
:1004600093F7F70F1387618181E685466385D7028D
:10047000142305466315D6008D46638ED7001423DA
:100480000D466315D60089466387D70014230946B5
:100490006310D60291EF938601819042050690C2C7
:1004A000130500031CA36D260244110173002030C4
:1004B000142393F6F60F81E689466385D702142349
:1004C00009466315D6008D46638ED70014230D466A
:1004D0006315D60085466387D70014230546631845
:1004E000D60091E79386018190427D164DBFB706F5
:1004F00000200546238CC60265B7711122C037441F
:1005000001409305505213050480BD253DC11305DC
:100510000480912D938771819C239386718193F739
:10052000F70FA1EB1377F50F3546938781826305AB
:10053000C7002946631DC700902313878181329726
:1005400023000700054798A2238007001DA09823D9
:10055000B946E3EBE6FE9823620561851377F70F52
:100560009306170093F6F60F94A393878181BA97A9
:1005700088A337440140A14513050480CD2B09C54C
:1005800003570480835744800244110173002030D4
:10059000EFF21FB1371402401C403707FFF861111A
:1005A00093E717001CC05C404145F98F5CC01C40BC
:1005B0003707F7FE7D17F98F1CC01C403707FCFF7B
:1005C0007D17F98F1CC05C4041777D17F98F5CC0A7
:1005D000B7079F001CC4792E1C4C3706020093E716
:1005E00007021CCCB717014003A7074093860740BA
:1005F0001377F7F023A0E74003A707401367070826
:1006000023A0E74089479CCA02C002C21C4C37079E
:100610000140A16693E717001CCC5C43D58F5CC3F7
:100620001C404167B7160240D98F1CC009679C4225
:10063000F18F3EC2824785073EC0924781E78247DD
:10064000E397E7FEB71702409C431397E700635810
:10065000070685473EC2124785476310F706B7274E
:1006600002409843C176FD16719B98C39843136767
:10067000170098C3B7170240D843D8C3D843758F23
:10068000D8C3D843C166558FD8C39843B706000175
:10069000558F98C3984393166700E3DD06FED84351
:1006A000B7160240719BD8C3D84313672700D8C33D
:1006B0002147DC42B18BE39EE7FE2101FDB202C27D
:1006C00059BFEFF2FF9D371702405C43370400200B
:1006D0009146B18B130404016385D700A146638062
:1006E000D704B7376E01938707601CC0B716024066
:1006F000DC420840918313F7F700B7070020938787
:100700000700BA978C23DC4293F5F50F93F707089F
:100710003357B50099E37D3A2A8718C079B25C4314
:10072000B777DC02938707C0C9B701A09701002003
:100730009381C110138181FC1305000A97050020E5
:100740009385458C170600201306C68B63FAC500F7
:100750008322050023A0550011059105E3EAC5FE9B
:1007600017150000130505BE9705002093858589A0
:10077000170600201306868C63FAC5008322050045
:1007800023A0550011059105E3EAC5FE17050020D9
:100790001305C58A938541836377B500232005003F
:1007A0001105E36DB5FEB7220000938202887390B5
:1007B00002308D42739042809702000093828284BF
:1007C00093E2320073905230EFF09FDC970200000A
:1007D000938202B87390123473002030B7F7FF1F72
:1007E00003A5477C82805841032305004C4537060A
:1007F0000140930706403E979346F3FFB1C583251A
:100800000640F58D2320B640D043F18ED4C3144367
:10081000B3E6660014C3184190479346F7FF758E00
:1008200090C7D047F18ED4C7144541466399C6009E
:100830009447D98E94C7D447558FD8C78280B6972E
:100840009443558F98C382801C43F58F1CC38280CC
:10085000B707014023AAA7408280944593F7060179
:1008600093F2F60081C7DC41B3E2F20083D30500C6
:1008700093F7F30FA5C303230500611122C226C01D
:100880008147130480029304800405473316F70060
:1008900033F7C3006312E602939527003D473317F1
:1008A000B7001347F7FF33736700B395B20033E324
:1008B0006500639D860050C985072147E397E7FCE3
:1008C000124423206500824421018280E39696FE33
:1008D00010C9DDB7828008456D8D3335A000828058
:1008E00019C20CC982804CC9828037070140144765
:1008F00086058D47B397B70093C7F7FFF58F1CC7E1
:100900001C47B315B500DD8D0CC7828023A6A182DC
:10091000828083A6C182854718216390F6021C312C
:10092000639CD7023C219A0793E707F8B7E600E0FB
:1009300093F7F70FBA962380F640854693575700F2
:100940003397E600544189CE938707048A07B7E6B8
:1009500000E0B69798C38280EDF33C219A07F9B77F
:1009600093870706B7E600E08A07B69798C30F108B
:1009700000008280371702401C430E0593F777F082
:100980005D8D08C38280EFF2AFF1371702405C4300
:1009900091462A84B18B6385D700A1466380D7082E
:1009A000B7376E01938707601CC0B7160240DC4260
:1009B000918313F7F700B707002093878702BA9750
:1009C0008C23DC42184093F5F50F93F70708335555
:1009D000B70081E73A85EFF0EFEF48C008C448C49C
:1009E000B7170240DC438D46AD83FD8B13D737002C
:1009F0008A07F18BD98F13F6370113F7370063F4A9
:100A0000C600138747FFB707002093874701BA97AF
:100A10008C23EFF02FEC08C86FF02FE95C43B77719
:100A2000DC02938707C049B799C5371702401C4FAE
:100A30005D8D08CF8280B7170240984F1345F5FFB0
:100A4000798D88CF8280EFF2AFE51629F577FD1713
:100A5000F58FF621DA252111D58F1EA95625FD77B0
:100A60009387379FF58FD6212A842EC0D58F962560
:100A7000D58FB625D58F5EA55E29C207C18393F7B2
:100A8000F7CF5D8F5AA94800FD3DB74701409387D6
:100A9000078082456312F406C2475A241395170053
:100AA0003E9542070E0541873E958C4163580704E9
:100AB0008605EFF02FE2930540062AC0EFF08FE1A4
:100AC000824793144500930540063E85EFF04FE3BF
:100AD0005E24C207C18763D507020E059305400651
:100AE00013052503EFF00FDF1D89C98CC204C180F7
:100AF00006A461016FF06FDBB24745B78A0555BFA9
:100B000012059305400613052503EFF0AFDC3D8980
:100B1000E9BF91C55E250967D98F5EA582805A25F8
:100B2000F977FD17F98FD5BF13F7F50F85471583B3
:100B3000B395B7006319F7009307C500984301CE3A
:100B4000D98D8CC38280894693074501E318D7FE6F
:100B500093070501E5B793C5F5FFF98DDDB793F56B
:100B6000F51F4EA182804A211375F51F82800A214C
:100B70006D8D3335A000828013F7F50F8546158300
:100B8000B397B6006311D7025A25F98F1A21014590
:100B90004207418381CB0545A181B315B5006D8F17
:100BA0003335E000828089466314D7001A29F1BFEB
:100BB0005A29E1BFEFF2CFCEB707002003A5070106
:100BC000B7157A0093850520EFF0CFD01375F50F98
:100BD0002389A18293175500898F8A073E950E05B8
:100BE0002398A1826FF06FCCEFF28FCB37F400E047
:100BF0005C40AA85F99B5CC003D50183EFF08FCBE5
:100C000008C8232404001C4093E717001CC0B7F752
:100C100000E0D843058B75DF9843799B98C36FF04C
:100C2000CFC8EFF2EFC72A8411651111854513056E
:100C30000502DD3B930700027C80371501408D479C
:100C40003EC28A85E147130505403EC4393122C6BC
:100C500037440140B70708006C00130504803ECA02
:100C600002C8231C0100C533854513050480553592
:100C700071016FF08FC3EFF2AFC27111AE84014406
:100C8000635DC402B7470140138707803A85930527
:100C9000000432C0E93DB747014013870780024690
:100CA00075D5338784008305070013850780050405
:100CB000C205C1816D350246E1B7328511016FF081
:100CC000CFBE411106C62EC00DCD1841AA8705C35F
:100CD00058417D5511CB8546631BD70098472300AB
:100CE000070023A207000545B240410182809847D2
:100CF000824614A39847050798C7D8437D17D8C3E1
:100D0000DDB705468A85853FF9BF011122CC2EC289
:100D100006CE26CA2A84814793050002634506024F
:100D20009245BE95838505008DE563D8C70263D4DF
:100D3000E702198E1305000293F526002AC089C523
:100D400001E7930500032EC0858A814495EAB284A9
:100D50000DA08507F1B71D8EF1BF0146E1BF8245A9
:100D600022853AC832C63EC4A93FA247324642470E
:100D7000FD14E34690FEB284635306008144058E61
:100D800063C7E702A6879246338797403697830565
:100D9000070095EDB2846344900463530600014656
:100DA000F2406244D2443305F600056182801D8F13
:100DB000BA8793050003228532C83EC63AC411376C
:100DC000B24722474246FD17EDF7BA9465BF228528
:100DD00032C63EC4FD35A247324685076DB782450F
:100DE000228532C43EC2F13DFD142246924765B7CA
:100DF000397106DE22DC26DA3EC232833A8689ED7C
:100E000092469307000301476C08FC86FD3DF250B3
:100E10006254D25421618280AA843684AE8791CAFA
:100E2000294701446317E30063D50500B307B040C9
:100E300005448646A309010213073103938666FC25
:100E400036C49A853E8532CA3AC81AC63EC0EFF00B
:100E50002FABA546824732434247524663D4A60091
:100E6000A2463695130505039306F7FFA30FA7FEC9
:100E70009A853E8532CC3ACA1AC83EC636C0EFF0D3
:100E80006FA5B24742435247624663F9670401CCFB
:100E900029CA9247898BB1C79305D002268532C4EF
:100EA0000D3522467D169247918B95C306479307D1
:100EB000100632C4930500032685631EF702113520
:100EC000930580072685F53B2246090479161647C7
:100ED000924682452685153D229515BFAA87024771
:100EE0008DB782469307D0020144A38FF6FE930785
:100EF000E7FF3EC04DBFF13393058005E1B70145E3
:100F0000828001458280130181FD22D026CE06D247
:100F10002AC4AE82328402C681448385020089EDF0
:100F2000A24781C781453E85693B92500254268580
:100F3000F244130181028280930750026388F50016
:100F4000224516C88504B53BC24239A883871200E2
:100F500013871200639CB7002245930550023AC8DC
:100F60008D3342478504BA82850245BFD5DB93069F
:100F7000B0026389D70463C8F60093063002638623
:100F8000D704814705A09306D002638AD700930651
:100F90000003E398D7FE13872200894721A0138717
:100FA00022008547830607001306B0026383C60448
:100FB0006341D60213063002638BC602BA82014532
:100FC000A54681A0138722006DBF13872200914799
:100FD000D1BF1306D0026389C60013060003E39F46
:100FE000C6FC93E7270031A005078547C1BF93E7FB
:100FF00047000507E1B713162500329506053A9517
:10100000850203860200130706FD9375F70FE3F4CC
:10101000B6FE1307E0029946631EE600850281468C
:10102000A54503860200130606FD1377F60F63F548
:10103000E50236C6038702001306A006630DC70A41
:101040006343E6021306C0046307C70A130680065B
:10105000630CC70881452DA813972600BA9686060B
:10106000B29685027DBF130640076306C7081306C4
:10107000A0076302C7081306C0068145631AC700AC
:10108000038612008D456314E600850291458502B2
:1010900003860200930300061307100663C4C3000F
:1010A000130710049303700663C4C306930350062A
:1010B000635376189303700463C1C304930550040B
:1010C000635BB61613073004E310E6EA1840930397
:1010D000440016CA230CE1001EC8A30C01000147FE
:1010E000BE862A862C0849A8038612008145E31192
:1010F000E6FA890271BF8502B1BF93063006E307A5
:10110000D6FC63CEC606930680056303D602A9BD4E
:10111000930630076304D60463CBC6029306F00639
:101120006302D60E9306000793E74700E31ED6E25C
:101130009146639FD50A930384000C40504016CA21
:101140003AC23EC01EC8AA870147C146B9A093064D
:1011500050076308D6069306800745BF1840B716A8
:101160000000930344009385863311C3BA85324748
:1011700016CA1EC8BE862A862245413E0DA091464B
:101180006394D502930384000C40504016CA3AC2BF
:101190003EC01EC8AA870547A94622458D33C243D3
:1011A000AA941E84D242C9B3B2460C4016C836C2B5
:1011B0003AC011042A878546294622451539AA9442
:1011C00061B39146639DD500930384000C40504069
:1011D00016CA3AC23EC01EC8AA87014775BFB246AA
:1011E0000C4016C836C23AC011042A878146E9B7B6
:1011F000B24616C80C40414636C23AC011042A878E
:10120000814665BF9146639ED500930384000C40E0
:10121000504016CA3AC23EC01EC8AA870147A1461E
:10122000ADBFB2460C4016C836C23AC011042A8778
:101230008146214659B70C401306840040403AC20B
:101240002A87224532C83EC02286B687A94616CADA
:101250004D39AA944244B9B71301C1FD2EC832CA10
:10126000AA851008014506C636CC3ACE3ED032C01B
:101270005939B240130141028280411122C426C271
:1012800006C61C21AA840144DC81830731000504C1
:1012900099EFA9479305310005460145DC81EFF040
:1012A0009F9D2285B240224492444101828005469E
:1012B000930531000145EFF01F9CB38784009C2308
:1012C000DC81E1B7AA87982185078505A38FE7FE12
:1012D0007DFB8280AA87850703C7F7FF6DFF3385F3
:1012E000A7407D158280000053797374656D436C4F
:1012F0006B3A25640D0A00004368697049443A2539
:101300003038780D0A0000002121494E56414C49E1
:101310004421210053544154453A20256425642C2E
:1013200020434C49434B533A202564200A000000D7
:101330006361736520330000286E756C6C290000B2
:101340000102030405060708010203040506070855
:10135000006CDC020204060804080C1008101820B7
:101360001020304020406080010203040506070879
:08137000010203040506070851
:00000001FF
