:100000006F008046000000004A0100004C01000023
:1000100000000000000000000000000000000000E0
:1000200000000000000000000000000000000000D0
:1000300066040000000000006604000000000000EC
:100040006604000066040000660400006604000008
:10005000B4020000660400006604000066040000AC
:1000600066040000660400006604000066040000E8
:1000700066040000660400006604000066040000D8
:1000800066040000660400006604000066040000C8
:100090006604000066040000660400000000000022
:1000A000511126C022C206C4828282441244A24058
:1000B000310182802A86014593F6150091C232955E
:1000C00085810606F5F9828000000000634E050276
:1000D00063C305042E86AA857D5515C285466378BF
:1000E000B6006356C00006068606E36CB6FE014500
:1000F00063E4C500918D558D85820582F5FA828075
:100100008682C93F2E8582823305A04063D70500D1
:10011000B305B040C1B7B305B0408682653F330533
:10012000A0408282868263C70500634905005D376F
:100130002E858282B305B040E35B05FE3305A04007
:10014000513F3305B0408282000001A0B707EFBEE7
:1001500037E700E0938707083CC701A0EFF25FF4A0
:100160001165111185451305050202C002C202C4C2
:1001700002C602C802CA02CC0925930700027C808D
:10018000371401408D473EC28A85E147130504407C
:100190003EC42129930700047C808A85914713057A
:1001A00004403EC41921F16737440140938707207A
:1001B0003EC66C00B7070C00130504803ECA02C897
:1001C000231C0100D12B854513050480612D71018D
:1001D000E9BDEFF2FFEC1301C1FD854513051003E6
:1001E00002C402C602C802CA02CC02CE02D002C0B9
:1001F00002C261239547371501407C842C0091474A
:10020000130505403EC8552689477C84C1473EC832
:100210002C008D47371501403EC6412E81450D45C6
:1002200029290544B147480822CA3ECE22D002CC33
:10023000E524D1470A857C80408122C22D2113010B
:100240004102A5B5EFF2DFE5054509294D2A3D2D0F
:100250007165130505205525113737150000130565
:10026000C5F9EF00F04CB537374501409305100450
:1002700013050580192537150000130545FBEF0010
:10028000504D2945352D37040020854693078403BA
:100290009823E39DE6FE894537150140238007003A
:1002A00059261306F5FF3336C0008945371501403E
:1002B0004126E1BF0545F12401C9B70700200547E4
:1002C0000545238CE702E92C73002030EFF25FDD57
:1002D000371402401C403707FFF8611193E71700FD
:1002E0001CC05C404145F98F5CC01C403707F7FEDD
:1002F0007D17F98F1CC01C403707FCFF7D17F98F55
:100300001CC05C4041777D17F98F5CC0B7079F0028
:100310001CC46D2E1C4C3706020093E707021CCC50
:10032000B717014003A70740938607401377F7F0FC
:1003300023A0E74003A707401367070823A0E7406F
:1003400089479CCA02C002C21C4C37070140A16603
:1003500093E717001CCC5C43D58F5CC31C404167FE
:10036000B7160240D98F1CC009679C42F18F3EC26C
:10037000824785073EC0924781E78247E397E7FEC1
:10038000B71702409C431397E70063580706854759
:100390003EC2124785476310F706B72702409843CD
:1003A000C176FD16719B98C398431367170098C3D5
:1003B000B7170240D843D8C3D843758FD8C3D843A2
:1003C000C166558FD8C39843B7060001558F98C3AF
:1003D000984393166700E3DD06FED843B716024044
:1003E000719BD8C3D84313672700D8C32147DC4289
:1003F000B18BE39EE7FE21014DB902C259BFEFF276
:100400003FCA371702405C43370400209146B18B46
:10041000130404016385D700A1466380D704B7376E
:100420006E01938707601CC0B7160240DC4208408B
:10043000918313F7F700B707002093870700BA9757
:100440008C23DC4293F5F50F93F707083357B5007B
:1004500099E349312A8718C089B95C43B777DC0230
:10046000938707C0C9B701A0970100209381013D80
:10047000138181FC1305000A97050020938585B838
:1004800017060020130606B863FAC500832205008C
:1004900023A0550011059105E3EAC5FE17150000DC
:1004A0001305C5B3970500209385C5B51706002031
:1004B0001306C6B863FAC5008322050023A05500C1
:1004C00011059105E3EAC5FE17050020130505B7E0
:1004D0009385C1806377B500232005001105E36D86
:1004E000B5FEB722000093820288739002308D42DD
:1004F00073904280970200009382C2B093E2320070
:1005000073905230EFF09FDC970200009382C2D3C9
:1005100073901234730020305841032305004C457A
:1005200037060140930706403E979346F3FFB1C557
:1005300083250640F58D2320B640D043F18ED4C3E9
:100540001443B3E6660014C3184190479346F7FF7F
:10055000758E90C7D047F18ED4C714454146639934
:10056000C6009447D98E94C7D447558FD8C7828088
:10057000B6979443558F98C382801C43F58F1CC354
:100580008280B70701401387074083A70740584B75
:10059000698F09C77D8D3335A00082800145828037
:1005A000B707014023AAA7408280944593F706012C
:1005B00093F2F60081C7DC41B3E2F20083D3050079
:1005C00093F7F30FA5C303230500611122C226C0D0
:1005D0008147130480029304800405473316F70013
:1005E00033F7C3006312E602939527003D473317A4
:1005F000B7001347F7FF33736700B395B20033E3D7
:100600006500639D860050C985072147E397E7FC95
:10061000124423206500824421018280E39696FEE5
:1006200010C9DDB7828008456D8D3335A00082800A
:1006300019C20CC982804CC9828037070140144717
:1006400086058D47B397B70093C7F7FFF58F1CC793
:100650001C47B315B500DD8D0CC78280B70700209D
:1006600023AEA7028280B707002083A6C703854771
:1006700018216390F6021C31639CD7023C219A0733
:1006800093E707F8B7E600E093F7F70FBA962380F1
:10069000F6408546935757003397E600544189CE7C
:1006A000938707048A07B7E600E0B69798C382806D
:1006B000EDF33C219A07F9B793870706B7E600E008
:1006C0008A07B69798C30F10000082803717024040
:1006D0001C430E0593F777F05D8D08C38280EFF21F
:1006E0003F9C371702405C4391462A84B18B638557
:1006F000D700A146638DD706B7376E019387076091
:100700001CC0B7160240DC42918313F7F700B7070D
:10071000002093878702BA978C23DC42184093F518
:10072000F50F93F707083355B70099E33A855D3223
:1007300048C008C448C4B7170240DC438D46AD83A7
:10074000FD8B13D737008A07F18BD98F13F637014A
:1007500013F7370063F4C600138747FFB70700207D
:1007600093874701BA978C23B53208C83DBA5C43DA
:10077000B777DC02938707C061B799C53717024086
:100780001C4F5D8D08CF8280B7170240984F1345EC
:10079000F5FF798D88CF8280EFF29F901629F5774B
:1007A000FD17F58FF621DA252111D58F1EA95625C3
:1007B000FD779387379FF58FD6212A842EC0D58F5A
:1007C0009625D58FB625D58F5EA55E29C207C18334
:1007D00093F7F7CF5D8F5AA948001137B74701400B
:1007E0009387078082456312F406C2475A24139503
:1007F00017003E9542070E0541873E958C41635890
:1008000007048605EFF01F8D930540062AC0EFF020
:100810007F8C824793144500930540063E85EFF098
:100820003F8E5E24C207C18763D507020E0593057C
:10083000400613052503EFF0FF891D89C98CC2040A
:10084000C18006A461016FF05F86B24745B78A0593
:1008500055BF12059305400613052503EFF09F874A
:100860003D89E9BF91C55E250967D98F5EA5828064
:100870005A25F977FD17F98FD5BF93F5F51F4EA1CE
:1008800082800A216D8D3335A0008280EFF25F8176
:10089000B707002003A50701B7157A009385052047
:1008A000EFF05F831375F50F2385A1809317550033
:1008B000898F8A073E950E052394A1806FF0EFFE85
:1008C000EFF20FFE37F400E05C40AA85F99B5CC0B4
:1008D00003D58180EFF00FFE08C8232404001C40DC
:1008E00093E717001CC0B7F700E0D843058B75DF0E
:1008F0009843799B98C36FF04FFBEFF26FFA2A840D
:1009000011651111854513050502853D9307000208
:100910007C80371501408D473EC28A85E14713052B
:1009200005403EC4593122C637440140B70708008C
:100930006C00130504803ECA02C8231C0100A93DB7
:10094000854513050480393F71016FF00FF6EFF212
:100950002FF57111AE840144635DC402B7470140B5
:10096000138707803A859305000432C0193FB747C3
:10097000014013870780024675D5338784008305BD
:100980000700138507800504C205C181FD350246B5
:10099000E1B7328511016FF04FF1411106C62EC04B
:1009A0000DCD1841AA8705C358417D5511CB854609
:1009B000631BD70098472300070023A207000545C3
:1009C000B240410182809847824614A398470507A8
:1009D00098C7D8437D17D8C3DDB705468A85853FBC
:1009E000F9BF011122CC2EC206CE26CA2A84814725
:1009F00093050002634506029245BE958385050076
:100A00008DE563D8C70263D4E702198E130500028F
:100A100093F526002AC089C501E7930500032EC07F
:100A2000858A814495EAB2840DA08507F1B71D8EB1
:100A3000F1BF0146E1BF824522853AC832C63EC4B5
:100A4000A93FA24732464247FD14E34690FEB284D6
:100A5000635306008144058E63C7E702A68792466A
:100A60003387974036978305070095EDB28463443A
:100A70009004635306000146F2406244D2443305B9
:100A8000F600056182801D8FBA87930500032285D9
:100A900032C83EC63AC41137B24722474246FD1714
:100AA000EDF7BA9465BF228532C63EC4FD35A24734
:100AB000324685076DB78245228532C43EC2F13D7C
:100AC000FD142246924765B7397106DE22DC26DA2C
:100AD0003EC232833A8689ED92469307000301476E
:100AE0006C08FC86FD3DF2506254D2542161828034
:100AF000AA843684AE8791CA294701446317E3006C
:100B000063D50500B307B04005448646A30901023A
:100B100013073103938666FC36C49A853E8532CA34
:100B20003AC81AC63EC0EFF0AFDDA5468247324351
:100B30004247524663D4A600A246369513050503E4
:100B40009306F7FFA30FA7FE9A853E8532CC3ACADB
:100B50001AC83EC636C0EFF0EFD7B24742435247FD
:100B6000624663F9670401CC29CA9247898BB1C7F1
:100B70009305D002268532C40D3522467D16924754
:100B8000918B95C306479307100632C49305000363
:100B90002685631EF7021135930580072685F53BF0
:100BA0002246090479161647924682452685153D48
:100BB000229515BFAA8702478DB782469307D002B8
:100BC0000144A38FF6FE9307E7FF3EC04DBFF1330C
:100BD00093058005E1B701458280014582801301BC
:100BE00081FD22D026CE06D22AC4AE82328402C62D
:100BF00081448385020089EDA24781C781453E85F6
:100C0000693B925002542685F2441301810282808E
:100C1000930750026388F500224516C88504B53B4A
:100C2000C24239A88387120013871200639CB70061
:100C30002245930550023AC88D3342478504BA8253
:100C4000850245BFD5DB9306B0026389D70463C82C
:100C5000F600930630026386D704814705A0930609
:100C6000D002638AD70093060003E398D7FE138768
:100C70002200894721A013872200854783060700A9
:100C80001306B0026383C6046341D6021306300222
:100C9000638BC602BA820145A54681A01387220054
:100CA0006DBF138722009147D1BF1306D00263891D
:100CB000C60013060003E39FC6FC93E7270031A09C
:100CC00005078547C1BF93E747000507E1B713163E
:100CD0002500329506053A95850203860200130722
:100CE00006FD9375F70FE3F4B6FE1307E00299468D
:100CF000631EE60085028146A545038602001306B1
:100D000006FD1377F60F63F5E50236C6038702008A
:100D10001306A006630DC70A6343E6021306C00468
:100D20006307C70A13068006630CC70881452DA810
:100D300013972600BA968606B29685027DBF1306E3
:100D400040076306C7081306A0076302C708130617
:100D5000C0068145631AC700038612008D456314DF
:100D6000E600850291458502038602009303000692
:100D70001307100663C4C30013071004930370061F
:100D800063C4C30693035006635376189303700439
:100D900063C1C30493055004635BB61613073004A4
:100DA000E310E6EA18409303440016CA230CE1005E
:100DB0001EC8A30C01000147BE862A862C0849A83C
:100DC000038612008145E311E6FA890271BF8502AC
:100DD000B1BF93063006E307D6FC63CEC606930682
:100DE00080056303D602A9BD930630076304D604C9
:100DF00063CBC6029306F0066302D60E9306000785
:100E000093E74700E31ED6E29146639FD50A93031A
:100E100084000C40504016CA3AC23EC01EC8AA8781
:100E20000147C146B9A0930650076308D60693064A
:100E3000800745BF1840B716000093034400938510
:100E400006FD11C3BA85324716CA1EC8BE862A8659
:100E50002245413E0DA091466394D5029303840040
:100E60000C40504016CA3AC23EC01EC8AA87054769
:100E7000A94622458D33C243AA941E84D242C9B3E7
:100E8000B2460C4016C836C23AC011042A878546BD
:100E9000294622451539AA9461B39146639DD50030
:100EA000930384000C40504016CA3AC23EC01EC88C
:100EB000AA87014775BFB2460C4016C836C23AC071
:100EC00011042A878146E9B7B24616C80C4041464C
:100ED00036C23AC011042A87814665BF9146639E97
:100EE000D500930384000C40504016CA3AC23EC05D
:100EF0001EC8AA870147A146ADBFB2460C4016C81E
:100F000036C23AC011042A878146214659B70C409F
:100F10001306840040403AC22A87224532C83EC0A8
:100F20002286B687A94616CA4D39AA944244B9B753
:100F30001301C1FD2EC832CAAA851008014506C694
:100F400036CC3ACE3ED032C05939B24013014102BC
:100F50008280411122C426C206C61C21AA840144F3
:100F6000DC8183073100050491EFA9479305310027
:100F700005460145DC81E13A2285B2402244924493
:100F8000410182800546930531000145EFF03F9C09
:100F9000B38784009C23DC81E9B7000043483332E7
:100FA00056303033463450362044454D4F20504162
:100FB0005254310043483332563030334634503681
:100FC0002044454D4F2050415254310D0000000047
:080FD000286E756C6C2900000D
:100FD80001020304050607080102030405060708C1
:100FE800006CDC020204060804080C100810182023
:100FF80010203040204060800102030405060708E5
:081008000102030405060708BC
:00000001FF
